{
  "contractName": "MissingPersons",
  "abi": [
    {
      "inputs": [],
      "stateMutability": "nonpayable",
      "type": "constructor"
    },
    {
      "inputs": [
        {
          "internalType": "string",
          "name": "",
          "type": "string"
        },
        {
          "internalType": "address",
          "name": "",
          "type": "address"
        }
      ],
      "name": "appointments",
      "outputs": [
        {
          "internalType": "address",
          "name": "reporter",
          "type": "address"
        },
        {
          "internalType": "uint256",
          "name": "caseId",
          "type": "uint256"
        },
        {
          "internalType": "string",
          "name": "timeSlot",
          "type": "string"
        },
        {
          "internalType": "bool",
          "name": "exists",
          "type": "bool"
        }
      ],
      "stateMutability": "view",
      "type": "function",
      "constant": true
    },
    {
      "inputs": [
        {
          "internalType": "string",
          "name": "",
          "type": "string"
        },
        {
          "internalType": "uint256",
          "name": "",
          "type": "uint256"
        }
      ],
      "name": "divisionCases",
      "outputs": [
        {
          "internalType": "uint256",
          "name": "",
          "type": "uint256"
        }
      ],
      "stateMutability": "view",
      "type": "function",
      "constant": true
    },
    {
      "inputs": [
        {
          "internalType": "address",
          "name": "",
          "type": "address"
        },
        {
          "internalType": "uint256",
          "name": "",
          "type": "uint256"
        }
      ],
      "name": "investigatorSchedule",
      "outputs": [
        {
          "internalType": "string",
          "name": "",
          "type": "string"
        }
      ],
      "stateMutability": "view",
      "type": "function",
      "constant": true
    },
    {
      "inputs": [],
      "name": "nextCaseId",
      "outputs": [
        {
          "internalType": "uint256",
          "name": "",
          "type": "uint256"
        }
      ],
      "stateMutability": "view",
      "type": "function",
      "constant": true
    },
    {
      "inputs": [
        {
          "internalType": "uint256",
          "name": "",
          "type": "uint256"
        }
      ],
      "name": "persons",
      "outputs": [
        {
          "internalType": "uint256",
          "name": "caseId",
          "type": "uint256"
        },
        {
          "internalType": "string",
          "name": "name",
          "type": "string"
        },
        {
          "internalType": "uint256",
          "name": "age",
          "type": "uint256"
        },
        {
          "internalType": "uint256",
          "name": "height",
          "type": "uint256"
        },
        {
          "internalType": "string",
          "name": "description",
          "type": "string"
        },
        {
          "internalType": "string",
          "name": "lastSeenDivision",
          "type": "string"
        },
        {
          "internalType": "string",
          "name": "relativeContact",
          "type": "string"
        },
        {
          "internalType": "enum MissingPersons.Status",
          "name": "status",
          "type": "uint8"
        },
        {
          "internalType": "enum MissingPersons.Urgency",
          "name": "urgency",
          "type": "uint8"
        },
        {
          "internalType": "address",
          "name": "reporter",
          "type": "address"
        },
        {
          "internalType": "address",
          "name": "investigator",
          "type": "address"
        }
      ],
      "stateMutability": "view",
      "type": "function",
      "constant": true
    },
    {
      "inputs": [
        {
          "internalType": "address",
          "name": "",
          "type": "address"
        }
      ],
      "name": "users",
      "outputs": [
        {
          "internalType": "string",
          "name": "name",
          "type": "string"
        },
        {
          "internalType": "string",
          "name": "nid",
          "type": "string"
        },
        {
          "internalType": "string",
          "name": "homeAddress",
          "type": "string"
        },
        {
          "internalType": "enum MissingPersons.Role",
          "name": "role",
          "type": "uint8"
        },
        {
          "internalType": "bool",
          "name": "registered",
          "type": "bool"
        }
      ],
      "stateMutability": "view",
      "type": "function",
      "constant": true
    },
    {
      "inputs": [
        {
          "internalType": "string",
          "name": "_nid",
          "type": "string"
        },
        {
          "internalType": "string",
          "name": "_name",
          "type": "string"
        },
        {
          "internalType": "string",
          "name": "_address",
          "type": "string"
        },
        {
          "internalType": "uint256",
          "name": "_role",
          "type": "uint256"
        }
      ],
      "name": "registerUser",
      "outputs": [],
      "stateMutability": "nonpayable",
      "type": "function"
    },
    {
      "inputs": [
        {
          "internalType": "string",
          "name": "_name",
          "type": "string"
        },
        {
          "internalType": "uint256",
          "name": "_age",
          "type": "uint256"
        },
        {
          "internalType": "uint256",
          "name": "_height",
          "type": "uint256"
        },
        {
          "internalType": "string",
          "name": "_description",
          "type": "string"
        },
        {
          "internalType": "string",
          "name": "_division",
          "type": "string"
        },
        {
          "internalType": "string",
          "name": "_contact",
          "type": "string"
        }
      ],
      "name": "addMissingPerson",
      "outputs": [],
      "stateMutability": "nonpayable",
      "type": "function"
    },
    {
      "inputs": [
        {
          "internalType": "uint256",
          "name": "caseId",
          "type": "uint256"
        },
        {
          "internalType": "uint256",
          "name": "newStatus",
          "type": "uint256"
        }
      ],
      "name": "updateStatus",
      "outputs": [],
      "stateMutability": "nonpayable",
      "type": "function"
    },
    {
      "inputs": [
        {
          "internalType": "uint256",
          "name": "caseId",
          "type": "uint256"
        },
        {
          "internalType": "address",
          "name": "investigator",
          "type": "address"
        }
      ],
      "name": "assignInvestigator",
      "outputs": [],
      "stateMutability": "nonpayable",
      "type": "function"
    },
    {
      "inputs": [
        {
          "internalType": "string",
          "name": "_division",
          "type": "string"
        }
      ],
      "name": "searchByDivision",
      "outputs": [
        {
          "internalType": "uint256[]",
          "name": "",
          "type": "uint256[]"
        }
      ],
      "stateMutability": "view",
      "type": "function",
      "constant": true
    },
    {
      "inputs": [
        {
          "internalType": "uint256",
          "name": "caseId",
          "type": "uint256"
        },
        {
          "internalType": "string",
          "name": "timeSlot",
          "type": "string"
        }
      ],
      "name": "bookAppointment",
      "outputs": [],
      "stateMutability": "payable",
      "type": "function",
      "payable": true
    },
    {
      "inputs": [
        {
          "internalType": "address",
          "name": "investigator",
          "type": "address"
        }
      ],
      "name": "getSchedule",
      "outputs": [
        {
          "internalType": "string[]",
          "name": "",
          "type": "string[]"
        }
      ],
      "stateMutability": "view",
      "type": "function",
      "constant": true
    }
  ],
  "bytecode": "0x608060405260015f5534801562000014575f80fd5b506040518060a001604052806040518060400160405280600581526020017f41646d696e00000000000000000000000000000000000000000000000000000081525081526020016040518060400160405280600181526020017f300000000000000000000000000000000000000000000000000000000000000081525081526020016040518060400160405280600881526020017f41646d696e20485100000000000000000000000000000000000000000000000081525081526020015f6002811115620000e757620000e6620001d1565b5b81526020016001151581525060015f3373ffffffffffffffffffffffffffffffffffffffff1673ffffffffffffffffffffffffffffffffffffffff1681526020019081526020015f205f820151815f01908162000145919062000462565b5060208201518160010190816200015d919062000462565b50604082015181600201908162000175919062000462565b506060820151816003015f6101000a81548160ff02191690836002811115620001a357620001a2620001d1565b5b021790555060808201518160030160016101000a81548160ff02191690831515021790555090505062000546565b7f4e487b71000000000000000000000000000000000000000000000000000000005f52602160045260245ffd5b5f81519050919050565b7f4e487b71000000000000000000000000000000000000000000000000000000005f52604160045260245ffd5b7f4e487b71000000000000000000000000000000000000000000000000000000005f52602260045260245ffd5b5f60028204905060018216806200027a57607f821691505b60208210810362000290576200028f62000235565b5b50919050565b5f819050815f5260205f209050919050565b5f6020601f8301049050919050565b5f82821b905092915050565b5f60088302620002f47fffffffffffffffffffffffffffffffffffffffffffffffffffffffffffffffff82620002b7565b620003008683620002b7565b95508019841693508086168417925050509392505050565b5f819050919050565b5f819050919050565b5f6200034a620003446200033e8462000318565b62000321565b62000318565b9050919050565b5f819050919050565b62000365836200032a565b6200037d620003748262000351565b848454620002c3565b825550505050565b5f90565b6200039362000385565b620003a08184846200035a565b505050565b5b81811015620003c757620003bb5f8262000389565b600181019050620003a6565b5050565b601f8211156200041657620003e08162000296565b620003eb84620002a8565b81016020851015620003fb578190505b620004136200040a85620002a8565b830182620003a5565b50505b505050565b5f82821c905092915050565b5f620004385f19846008026200041b565b1980831691505092915050565b5f62000452838362000427565b9150826002028217905092915050565b6200046d82620001fe565b67ffffffffffffffff81111562000489576200048862000208565b5b62000495825462000262565b620004a2828285620003cb565b5f60209050601f831160018114620004d8575f8415620004c3578287015190505b620004cf858262000445565b8655506200053e565b601f198416620004e88662000296565b5f5b828110156200051157848901518255600182019150602085019450602081019050620004ea565b868310156200053157848901516200052d601f89168262000427565b8355505b6001600288020188555050505b505050505050565b612e0180620005545f395ff3fe6080604052600436106100c1575f3560e01c8063822fce771161007e578063a87430ba11610058578063a87430ba14610294578063d39fee34146102d4578063dc32a81e14610310578063e2f3182914610338576100c1565b8063822fce77146101d6578063a2f9eac614610212578063a4ab09b914610258576100c1565b806310f452a9146100c557806311b2806b14610101578063577d9112146101295780635f77d760146101685780636350eae8146101905780636e4abaae146101ba575b5f80fd5b3480156100d0575f80fd5b506100eb60048036038101906100e69190611bca565b610360565b6040516100f89190611cd1565b60405180910390f35b34801561010c575f80fd5b5061012760048036038101906101229190611d1b565b6103d4565b005b348015610134575f80fd5b5061014f600480360381019061014a9190611e2d565b6105da565b60405161015f9493929190611f39565b60405180910390f35b348015610173575f80fd5b5061018e60048036038101906101899190611f83565b6106da565b005b34801561019b575f80fd5b506101a4610a7f565b6040516101b1919061207c565b60405180910390f35b6101d460048036038101906101cf9190612095565b610a84565b005b3480156101e1575f80fd5b506101fc60048036038101906101f791906120ef565b610ea9565b604051610209919061212d565b60405180910390f35b34801561021d575f80fd5b506102386004803603810190610233919061214d565b610f5a565b60405161024f9b9a99989796959493929190612231565b60405180910390f35b348015610263575f80fd5b5061027e600480360381019061027991906122f6565b611220565b60405161028b919061207c565b60405180910390f35b34801561029f575f80fd5b506102ba60048036038101906102b59190612350565b611263565b6040516102cb9594939291906123c1565b60405180910390f35b3480156102df575f80fd5b506102fa60048036038101906102f59190612350565b611440565b604051610307919061252a565b60405180910390f35b34801561031b575f80fd5b506103366004803603810190610331919061254a565b611551565b005b348015610343575f80fd5b5061035e60048036038101906103599190612588565b611804565b005b60606003826040516103729190612600565b90815260200160405180910390208054806020026020016040519081016040528092919081815260200182805480156103c857602002820191905f5260205f20905b8154815260200190600101908083116103b4575b50505050509050919050565b60015f3373ffffffffffffffffffffffffffffffffffffffff1673ffffffffffffffffffffffffffffffffffffffff1681526020019081526020015f2060030160019054906101000a900460ff1615610462576040517f08c379a000000000000000000000000000000000000000000000000000000000815260040161045990612660565b60405180910390fd5b60028081111561047557610474612178565b5b8111156104b7576040517f08c379a00000000000000000000000000000000000000000000000000000000081526004016104ae906126c8565b60405180910390fd5b6040518060a001604052808481526020018581526020018381526020018260028111156104e7576104e6612178565b5b60028111156104f9576104f8612178565b5b81526020016001151581525060015f3373ffffffffffffffffffffffffffffffffffffffff1673ffffffffffffffffffffffffffffffffffffffff1681526020019081526020015f205f820151815f01908161055591906128e0565b50602082015181600101908161056b91906128e0565b50604082015181600201908161058191906128e0565b506060820151816003015f6101000a81548160ff021916908360028111156105ac576105ab612178565b5b021790555060808201518160030160016101000a81548160ff02191690831515021790555090505050505050565b600482805160208101820180518482526020830160208501208183528095505050505050602052805f5260405f205f9150915050805f015f9054906101000a900473ffffffffffffffffffffffffffffffffffffffff169080600101549080600201805461064790612713565b80601f016020809104026020016040519081016040528092919081815260200182805461067390612713565b80156106be5780601f10610695576101008083540402835291602001916106be565b820191905f5260205f20905b8154815290600101906020018083116106a157829003601f168201915b505050505090806003015f9054906101000a900460ff16905084565b6001805f3373ffffffffffffffffffffffffffffffffffffffff1673ffffffffffffffffffffffffffffffffffffffff1681526020019081526020015f2060030160019054906101000a900460ff1680156107a4575080600281111561074357610742612178565b5b60015f3373ffffffffffffffffffffffffffffffffffffffff1673ffffffffffffffffffffffffffffffffffffffff1681526020019081526020015f206003015f9054906101000a900460ff1660028111156107a2576107a1612178565b5b145b6107e3576040517f08c379a00000000000000000000000000000000000000000000000000000000081526004016107da906129f9565b60405180910390fd5b5f6012871061080257603287116107fa575f6107fd565b60025b610805565b60015b90506040518061016001604052805f5481526020018981526020018881526020018781526020018681526020018581526020018481526020015f600181111561085157610850612178565b5b815260200182600281111561086957610868612178565b5b81526020013373ffffffffffffffffffffffffffffffffffffffff1681526020015f73ffffffffffffffffffffffffffffffffffffffff1681525060025f805481526020019081526020015f205f820151815f015560208201518160010190816108d391906128e0565b50604082015181600201556060820151816003015560808201518160040190816108fd91906128e0565b5060a082015181600501908161091391906128e0565b5060c082015181600601908161092991906128e0565b5060e0820151816007015f6101000a81548160ff0219169083600181111561095457610953612178565b5b02179055506101008201518160070160016101000a81548160ff0219169083600281111561098557610984612178565b5b02179055506101208201518160070160026101000a81548173ffffffffffffffffffffffffffffffffffffffff021916908373ffffffffffffffffffffffffffffffffffffffff160217905550610140820151816008015f6101000a81548173ffffffffffffffffffffffffffffffffffffffff021916908373ffffffffffffffffffffffffffffffffffffffff160217905550905050600384604051610a2c9190612600565b90815260200160405180910390205f54908060018154018082558091505060019003905f5260205f20015f90919091909150555f80815480929190610a7090612a44565b91905055505050505050505050565b5f5481565b6001805f3373ffffffffffffffffffffffffffffffffffffffff1673ffffffffffffffffffffffffffffffffffffffff1681526020019081526020015f2060030160019054906101000a900460ff168015610b4e5750806002811115610aed57610aec612178565b5b60015f3373ffffffffffffffffffffffffffffffffffffffff1673ffffffffffffffffffffffffffffffffffffffff1681526020019081526020015f206003015f9054906101000a900460ff166002811115610b4c57610b4b612178565b5b145b610b8d576040517f08c379a0000000000000000000000000000000000000000000000000000000008152600401610b84906129f9565b60405180910390fd5b5f3411610bcf576040517f08c379a0000000000000000000000000000000000000000000000000000000008152600401610bc690612ad5565b60405180910390fd5b5f60025f8581526020019081526020015f206008015f9054906101000a900473ffffffffffffffffffffffffffffffffffffffff1690505f73ffffffffffffffffffffffffffffffffffffffff168173ffffffffffffffffffffffffffffffffffffffff1603610c74576040517f08c379a0000000000000000000000000000000000000000000000000000000008152600401610c6b90612b3d565b60405180910390fd5b600483604051610c849190612600565b90815260200160405180910390205f8273ffffffffffffffffffffffffffffffffffffffff1673ffffffffffffffffffffffffffffffffffffffff1681526020019081526020015f206003015f9054906101000a900460ff1615610d1d576040517f08c379a0000000000000000000000000000000000000000000000000000000008152600401610d1490612ba5565b60405180910390fd5b60405180608001604052803373ffffffffffffffffffffffffffffffffffffffff16815260200185815260200184815260200160011515815250600484604051610d679190612600565b90815260200160405180910390205f8373ffffffffffffffffffffffffffffffffffffffff1673ffffffffffffffffffffffffffffffffffffffff1681526020019081526020015f205f820151815f015f6101000a81548173ffffffffffffffffffffffffffffffffffffffff021916908373ffffffffffffffffffffffffffffffffffffffff160217905550602082015181600101556040820151816002019081610e1391906128e0565b506060820151816003015f6101000a81548160ff02191690831515021790555090505060055f8273ffffffffffffffffffffffffffffffffffffffff1673ffffffffffffffffffffffffffffffffffffffff1681526020019081526020015f2083908060018154018082558091505060019003905f5260205f20015f909190919091509081610ea291906128e0565b5050505050565b6005602052815f5260405f208181548110610ec2575f80fd5b905f5260205f20015f91509150508054610edb90612713565b80601f0160208091040260200160405190810160405280929190818152602001828054610f0790612713565b8015610f525780601f10610f2957610100808354040283529160200191610f52565b820191905f5260205f20905b815481529060010190602001808311610f3557829003601f168201915b505050505081565b6002602052805f5260405f205f91509050805f015490806001018054610f7f90612713565b80601f0160208091040260200160405190810160405280929190818152602001828054610fab90612713565b8015610ff65780601f10610fcd57610100808354040283529160200191610ff6565b820191905f5260205f20905b815481529060010190602001808311610fd957829003601f168201915b50505050509080600201549080600301549080600401805461101790612713565b80601f016020809104026020016040519081016040528092919081815260200182805461104390612713565b801561108e5780601f106110655761010080835404028352916020019161108e565b820191905f5260205f20905b81548152906001019060200180831161107157829003601f168201915b5050505050908060050180546110a390612713565b80601f01602080910402602001604051908101604052809291908181526020018280546110cf90612713565b801561111a5780601f106110f15761010080835404028352916020019161111a565b820191905f5260205f20905b8154815290600101906020018083116110fd57829003601f168201915b50505050509080600601805461112f90612713565b80601f016020809104026020016040519081016040528092919081815260200182805461115b90612713565b80156111a65780601f1061117d576101008083540402835291602001916111a6565b820191905f5260205f20905b81548152906001019060200180831161118957829003601f168201915b505050505090806007015f9054906101000a900460ff16908060070160019054906101000a900460ff16908060070160029054906101000a900473ffffffffffffffffffffffffffffffffffffffff1690806008015f9054906101000a900473ffffffffffffffffffffffffffffffffffffffff1690508b565b6003828051602081018201805184825260208301602085012081835280955050505050508181548110611251575f80fd5b905f5260205f20015f91509150505481565b6001602052805f5260405f205f91509050805f01805461128290612713565b80601f01602080910402602001604051908101604052809291908181526020018280546112ae90612713565b80156112f95780601f106112d0576101008083540402835291602001916112f9565b820191905f5260205f20905b8154815290600101906020018083116112dc57829003601f168201915b50505050509080600101805461130e90612713565b80601f016020809104026020016040519081016040528092919081815260200182805461133a90612713565b80156113855780601f1061135c57610100808354040283529160200191611385565b820191905f5260205f20905b81548152906001019060200180831161136857829003601f168201915b50505050509080600201805461139a90612713565b80601f01602080910402602001604051908101604052809291908181526020018280546113c690612713565b80156114115780601f106113e857610100808354040283529160200191611411565b820191905f5260205f20905b8154815290600101906020018083116113f457829003601f168201915b505050505090806003015f9054906101000a900460ff16908060030160019054906101000a900460ff16905085565b606060055f8373ffffffffffffffffffffffffffffffffffffffff1673ffffffffffffffffffffffffffffffffffffffff1681526020019081526020015f20805480602002602001604051908101604052809291908181526020015f905b82821015611546578382905f5260205f200180546114bb90612713565b80601f01602080910402602001604051908101604052809291908181526020018280546114e790612713565b80156115325780601f1061150957610100808354040283529160200191611532565b820191905f5260205f20905b81548152906001019060200180831161151557829003601f168201915b50505050508152602001906001019061149e565b505050509050919050565b5f60015f3373ffffffffffffffffffffffffffffffffffffffff1673ffffffffffffffffffffffffffffffffffffffff1681526020019081526020015f2060030160019054906101000a900460ff16801561161b57508060028111156115ba576115b9612178565b5b60015f3373ffffffffffffffffffffffffffffffffffffffff1673ffffffffffffffffffffffffffffffffffffffff1681526020019081526020015f206003015f9054906101000a900460ff16600281111561161957611618612178565b5b145b61165a576040517f08c379a0000000000000000000000000000000000000000000000000000000008152600401611651906129f9565b60405180910390fd5b60028081111561166d5761166c612178565b5b60015f8473ffffffffffffffffffffffffffffffffffffffff1673ffffffffffffffffffffffffffffffffffffffff1681526020019081526020015f206003015f9054906101000a900460ff1660028111156116cc576116cb612178565b5b1461170c576040517f08c379a000000000000000000000000000000000000000000000000000000000815260040161170390612c0d565b60405180910390fd5b8173ffffffffffffffffffffffffffffffffffffffff1660025f8581526020019081526020015f206008015f9054906101000a900473ffffffffffffffffffffffffffffffffffffffff1673ffffffffffffffffffffffffffffffffffffffff16036117ad576040517f08c379a00000000000000000000000000000000000000000000000000000000081526004016117a490612c75565b60405180910390fd5b8160025f8581526020019081526020015f206008015f6101000a81548173ffffffffffffffffffffffffffffffffffffffff021916908373ffffffffffffffffffffffffffffffffffffffff160217905550505050565b5f60015f3373ffffffffffffffffffffffffffffffffffffffff1673ffffffffffffffffffffffffffffffffffffffff1681526020019081526020015f2060030160019054906101000a900460ff1680156118ce575080600281111561186d5761186c612178565b5b60015f3373ffffffffffffffffffffffffffffffffffffffff1673ffffffffffffffffffffffffffffffffffffffff1681526020019081526020015f206003015f9054906101000a900460ff1660028111156118cc576118cb612178565b5b145b61190d576040517f08c379a0000000000000000000000000000000000000000000000000000000008152600401611904906129f9565b60405180910390fd5b5f548310611950576040517f08c379a000000000000000000000000000000000000000000000000000000000815260040161194790612cdd565b60405180910390fd5b60018081111561196357611962612178565b5b8211156119a5576040517f08c379a000000000000000000000000000000000000000000000000000000000815260040161199c90612d45565b60405180910390fd5b5f60018111156119b8576119b7612178565b5b60025f8581526020019081526020015f206007015f9054906101000a900460ff1660018111156119eb576119ea612178565b5b14611a2b576040517f08c379a0000000000000000000000000000000000000000000000000000000008152600401611a2290612dad565b60405180910390fd5b816001811115611a3e57611a3d612178565b5b60025f8581526020019081526020015f206007015f6101000a81548160ff02191690836001811115611a7357611a72612178565b5b0217905550505050565b5f604051905090565b5f80fd5b5f80fd5b5f80fd5b5f80fd5b5f601f19601f8301169050919050565b7f4e487b71000000000000000000000000000000000000000000000000000000005f52604160045260245ffd5b611adc82611a96565b810181811067ffffffffffffffff82111715611afb57611afa611aa6565b5b80604052505050565b5f611b0d611a7d565b9050611b198282611ad3565b919050565b5f67ffffffffffffffff821115611b3857611b37611aa6565b5b611b4182611a96565b9050602081019050919050565b828183375f83830152505050565b5f611b6e611b6984611b1e565b611b04565b905082815260208101848484011115611b8a57611b89611a92565b5b611b95848285611b4e565b509392505050565b5f82601f830112611bb157611bb0611a8e565b5b8135611bc1848260208601611b5c565b91505092915050565b5f60208284031215611bdf57611bde611a86565b5b5f82013567ffffffffffffffff811115611bfc57611bfb611a8a565b5b611c0884828501611b9d565b91505092915050565b5f81519050919050565b5f82825260208201905092915050565b5f819050602082019050919050565b5f819050919050565b611c4c81611c3a565b82525050565b5f611c5d8383611c43565b60208301905092915050565b5f602082019050919050565b5f611c7f82611c11565b611c898185611c1b565b9350611c9483611c2b565b805f5b83811015611cc4578151611cab8882611c52565b9750611cb683611c69565b925050600181019050611c97565b5085935050505092915050565b5f6020820190508181035f830152611ce98184611c75565b905092915050565b611cfa81611c3a565b8114611d04575f80fd5b50565b5f81359050611d1581611cf1565b92915050565b5f805f8060808587031215611d3357611d32611a86565b5b5f85013567ffffffffffffffff811115611d5057611d4f611a8a565b5b611d5c87828801611b9d565b945050602085013567ffffffffffffffff811115611d7d57611d7c611a8a565b5b611d8987828801611b9d565b935050604085013567ffffffffffffffff811115611daa57611da9611a8a565b5b611db687828801611b9d565b9250506060611dc787828801611d07565b91505092959194509250565b5f73ffffffffffffffffffffffffffffffffffffffff82169050919050565b5f611dfc82611dd3565b9050919050565b611e0c81611df2565b8114611e16575f80fd5b50565b5f81359050611e2781611e03565b92915050565b5f8060408385031215611e4357611e42611a86565b5b5f83013567ffffffffffffffff811115611e6057611e5f611a8a565b5b611e6c85828601611b9d565b9250506020611e7d85828601611e19565b9150509250929050565b611e9081611df2565b82525050565b611e9f81611c3a565b82525050565b5f81519050919050565b5f82825260208201905092915050565b5f5b83811015611edc578082015181840152602081019050611ec1565b5f8484015250505050565b5f611ef182611ea5565b611efb8185611eaf565b9350611f0b818560208601611ebf565b611f1481611a96565b840191505092915050565b5f8115159050919050565b611f3381611f1f565b82525050565b5f608082019050611f4c5f830187611e87565b611f596020830186611e96565b8181036040830152611f6b8185611ee7565b9050611f7a6060830184611f2a565b95945050505050565b5f805f805f8060c08789031215611f9d57611f9c611a86565b5b5f87013567ffffffffffffffff811115611fba57611fb9611a8a565b5b611fc689828a01611b9d565b9650506020611fd789828a01611d07565b9550506040611fe889828a01611d07565b945050606087013567ffffffffffffffff81111561200957612008611a8a565b5b61201589828a01611b9d565b935050608087013567ffffffffffffffff81111561203657612035611a8a565b5b61204289828a01611b9d565b92505060a087013567ffffffffffffffff81111561206357612062611a8a565b5b61206f89828a01611b9d565b9150509295509295509295565b5f60208201905061208f5f830184611e96565b92915050565b5f80604083850312156120ab576120aa611a86565b5b5f6120b885828601611d07565b925050602083013567ffffffffffffffff8111156120d9576120d8611a8a565b5b6120e585828601611b9d565b9150509250929050565b5f806040838503121561210557612104611a86565b5b5f61211285828601611e19565b925050602061212385828601611d07565b9150509250929050565b5f6020820190508181035f8301526121458184611ee7565b905092915050565b5f6020828403121561216257612161611a86565b5b5f61216f84828501611d07565b91505092915050565b7f4e487b71000000000000000000000000000000000000000000000000000000005f52602160045260245ffd5b600281106121b6576121b5612178565b5b50565b5f8190506121c6826121a5565b919050565b5f6121d5826121b9565b9050919050565b6121e5816121cb565b82525050565b600381106121fc576121fb612178565b5b50565b5f81905061220c826121eb565b919050565b5f61221b826121ff565b9050919050565b61222b81612211565b82525050565b5f610160820190506122455f83018e611e96565b8181036020830152612257818d611ee7565b9050612266604083018c611e96565b612273606083018b611e96565b8181036080830152612285818a611ee7565b905081810360a08301526122998189611ee7565b905081810360c08301526122ad8188611ee7565b90506122bc60e08301876121dc565b6122ca610100830186612222565b6122d8610120830185611e87565b6122e6610140830184611e87565b9c9b505050505050505050505050565b5f806040838503121561230c5761230b611a86565b5b5f83013567ffffffffffffffff81111561232957612328611a8a565b5b61233585828601611b9d565b925050602061234685828601611d07565b9150509250929050565b5f6020828403121561236557612364611a86565b5b5f61237284828501611e19565b91505092915050565b6003811061238c5761238b612178565b5b50565b5f81905061239c8261237b565b919050565b5f6123ab8261238f565b9050919050565b6123bb816123a1565b82525050565b5f60a0820190508181035f8301526123d98188611ee7565b905081810360208301526123ed8187611ee7565b905081810360408301526124018186611ee7565b905061241060608301856123b2565b61241d6080830184611f2a565b9695505050505050565b5f81519050919050565b5f82825260208201905092915050565b5f819050602082019050919050565b5f82825260208201905092915050565b5f61246a82611ea5565b6124748185612450565b9350612484818560208601611ebf565b61248d81611a96565b840191505092915050565b5f6124a38383612460565b905092915050565b5f602082019050919050565b5f6124c182612427565b6124cb8185612431565b9350836020820285016124dd85612441565b805f5b8581101561251857848403895281516124f98582612498565b9450612504836124ab565b925060208a019950506001810190506124e0565b50829750879550505050505092915050565b5f6020820190508181035f83015261254281846124b7565b905092915050565b5f80604083850312156125605761255f611a86565b5b5f61256d85828601611d07565b925050602061257e85828601611e19565b9150509250929050565b5f806040838503121561259e5761259d611a86565b5b5f6125ab85828601611d07565b92505060206125bc85828601611d07565b9150509250929050565b5f81905092915050565b5f6125da82611ea5565b6125e481856125c6565b93506125f4818560208601611ebf565b80840191505092915050565b5f61260b82846125d0565b915081905092915050565b7f416c7265616479207265676973746572656400000000000000000000000000005f82015250565b5f61264a601283611eaf565b915061265582612616565b602082019050919050565b5f6020820190508181035f8301526126778161263e565b9050919050565b7f496e76616c696420726f6c6500000000000000000000000000000000000000005f82015250565b5f6126b2600c83611eaf565b91506126bd8261267e565b602082019050919050565b5f6020820190508181035f8301526126df816126a6565b9050919050565b7f4e487b71000000000000000000000000000000000000000000000000000000005f52602260045260245ffd5b5f600282049050600182168061272a57607f821691505b60208210810361273d5761273c6126e6565b5b50919050565b5f819050815f5260205f209050919050565b5f6020601f8301049050919050565b5f82821b905092915050565b5f6008830261279f7fffffffffffffffffffffffffffffffffffffffffffffffffffffffffffffffff82612764565b6127a98683612764565b95508019841693508086168417925050509392505050565b5f819050919050565b5f6127e46127df6127da84611c3a565b6127c1565b611c3a565b9050919050565b5f819050919050565b6127fd836127ca565b612811612809826127eb565b848454612770565b825550505050565b5f90565b612825612819565b6128308184846127f4565b505050565b5b81811015612853576128485f8261281d565b600181019050612836565b5050565b601f8211156128985761286981612743565b61287284612755565b81016020851015612881578190505b61289561288d85612755565b830182612835565b50505b505050565b5f82821c905092915050565b5f6128b85f198460080261289d565b1980831691505092915050565b5f6128d083836128a9565b9150826002028217905092915050565b6128e982611ea5565b67ffffffffffffffff81111561290257612901611aa6565b5b61290c8254612713565b612917828285612857565b5f60209050601f831160018114612948575f8415612936578287015190505b61294085826128c5565b8655506129a7565b601f19841661295686612743565b5f5b8281101561297d57848901518255600182019150602085019450602081019050612958565b8683101561299a5784890151612996601f8916826128a9565b8355505b6001600288020188555050505b505050505050565b7f556e617574686f72697a656400000000000000000000000000000000000000005f82015250565b5f6129e3600c83611eaf565b91506129ee826129af565b602082019050919050565b5f6020820190508181035f830152612a10816129d7565b9050919050565b7f4e487b71000000000000000000000000000000000000000000000000000000005f52601160045260245ffd5b5f612a4e82611c3a565b91507fffffffffffffffffffffffffffffffffffffffffffffffffffffffffffffffff8203612a8057612a7f612a17565b5b600182019050919050565b7f5061796d656e74207265717569726564000000000000000000000000000000005f82015250565b5f612abf601083611eaf565b9150612aca82612a8b565b602082019050919050565b5f6020820190508181035f830152612aec81612ab3565b9050919050565b7f496e76657374696761746f72206e6f742061737369676e6564000000000000005f82015250565b5f612b27601983611eaf565b9150612b3282612af3565b602082019050919050565b5f6020820190508181035f830152612b5481612b1b565b9050919050565b7f536c6f742074616b656e000000000000000000000000000000000000000000005f82015250565b5f612b8f600a83611eaf565b9150612b9a82612b5b565b602082019050919050565b5f6020820190508181035f830152612bbc81612b83565b9050919050565b7f4e6f7420616e20696e76657374696761746f72000000000000000000000000005f82015250565b5f612bf7601383611eaf565b9150612c0282612bc3565b602082019050919050565b5f6020820190508181035f830152612c2481612beb565b9050919050565b7f416c72656164792061737369676e6564000000000000000000000000000000005f82015250565b5f612c5f601083611eaf565b9150612c6a82612c2b565b602082019050919050565b5f6020820190508181035f830152612c8c81612c53565b9050919050565b7f496e76616c6964206361736500000000000000000000000000000000000000005f82015250565b5f612cc7600c83611eaf565b9150612cd282612c93565b602082019050919050565b5f6020820190508181035f830152612cf481612cbb565b9050919050565b7f496e76616c6964207374617475730000000000000000000000000000000000005f82015250565b5f612d2f600e83611eaf565b9150612d3a82612cfb565b602082019050919050565b5f6020820190508181035f830152612d5c81612d23565b9050919050565b7f416c726561647920464f554e44000000000000000000000000000000000000005f82015250565b5f612d97600d83611eaf565b9150612da282612d63565b602082019050919050565b5f6020820190508181035f830152612dc481612d8b565b905091905056fea2646970667358221220b57c40e69f663e5124216e4215969dbe08d3213710a880f4c69e9233b156716464736f6c63430008150033",
  "immutableReferences": {},
  "source": "// SPDX-License-Identifier: MIT\r\npragma solidity ^0.8.0;\r\n\r\ncontract MissingPersons {\r\n\r\n    enum Role { ADMIN, REPORTER, INVESTIGATOR }\r\n    enum Status { MISSING, FOUND }\r\n    enum Urgency { LOW, HIGH, MEDIUM }\r\n\r\n    struct User {\r\n        string name;\r\n        string nid;\r\n        string homeAddress;\r\n        Role role;\r\n        bool registered;\r\n    }\r\n\r\n    struct Person {\r\n        uint caseId;\r\n        string name;\r\n        uint age;\r\n        uint height;\r\n        string description;\r\n        string lastSeenDivision;\r\n        string relativeContact;\r\n        Status status;\r\n        Urgency urgency;\r\n        address reporter;\r\n        address investigator;\r\n    }\r\n\r\n    struct Appointment {\r\n        address reporter;\r\n        uint caseId;\r\n        string timeSlot;\r\n        bool exists;\r\n    }\r\n\r\n    uint public nextCaseId = 1;\r\n\r\n    mapping(address => User) public users;\r\n    mapping(uint => Person) public persons;\r\n    mapping(string => uint[]) public divisionCases;\r\n    mapping(string => mapping(address => Appointment)) public appointments;\r\n    mapping(address => string[]) public investigatorSchedule;\r\n\r\n    constructor() {\r\n        users[msg.sender] = User(\"Admin\", \"0\", \"Admin HQ\", Role.ADMIN, true);\r\n    }\r\n\r\n    modifier onlyRole(Role r) {\r\n        require(users[msg.sender].registered && users[msg.sender].role == r, \"Unauthorized\");\r\n        _;\r\n    }\r\n\r\n    function registerUser(string memory _nid, string memory _name, string memory _address, uint _role) public {\r\n        require(!users[msg.sender].registered, \"Already registered\");\r\n        require(_role <= uint(Role.INVESTIGATOR), \"Invalid role\");\r\n\r\n        users[msg.sender] = User(_name, _nid, _address, Role(_role), true);\r\n    }\r\n\r\n    function addMissingPerson(\r\n        string memory _name,\r\n        uint _age,\r\n        uint _height,\r\n        string memory _description,\r\n        string memory _division,\r\n        string memory _contact\r\n    ) public onlyRole(Role.REPORTER) {\r\n        Urgency urgency = (_age < 18) ? Urgency.HIGH : (_age > 50) ? Urgency.MEDIUM : Urgency.LOW;\r\n\r\n        persons[nextCaseId] = Person(\r\n            nextCaseId, _name, _age, _height, _description,\r\n            _division, _contact, Status.MISSING, urgency, msg.sender, address(0)\r\n        );\r\n\r\n        divisionCases[_division].push(nextCaseId);\r\n        nextCaseId++;\r\n    }\r\n\r\n    function updateStatus(uint caseId, uint newStatus) public onlyRole(Role.ADMIN) {\r\n        require(caseId < nextCaseId, \"Invalid case\");\r\n        require(newStatus <= uint(Status.FOUND), \"Invalid status\");\r\n        require(persons[caseId].status == Status.MISSING, \"Already FOUND\");\r\n\r\n        persons[caseId].status = Status(newStatus);\r\n    }\r\n\r\n    function assignInvestigator(uint caseId, address investigator) public onlyRole(Role.ADMIN) {\r\n        require(users[investigator].role == Role.INVESTIGATOR, \"Not an investigator\");\r\n        require(persons[caseId].investigator != investigator, \"Already assigned\");\r\n\r\n        persons[caseId].investigator = investigator;\r\n    }\r\n\r\n    function searchByDivision(string memory _division) public view returns (uint[] memory) {\r\n        return divisionCases[_division];\r\n    }\r\n\r\n    function bookAppointment(uint caseId, string memory timeSlot) public payable onlyRole(Role.REPORTER) {\r\n        require(msg.value > 0, \"Payment required\");\r\n\r\n        address investigator = persons[caseId].investigator;\r\n        require(investigator != address(0), \"Investigator not assigned\");\r\n        require(!appointments[timeSlot][investigator].exists, \"Slot taken\");\r\n\r\n        appointments[timeSlot][investigator] = Appointment(msg.sender, caseId, timeSlot, true);\r\n        investigatorSchedule[investigator].push(timeSlot);\r\n    }\r\n\r\n    function getSchedule(address investigator) public view returns (string[] memory) {\r\n        return investigatorSchedule[investigator];\r\n    }\r\n}\r\n",
  "sourcePath": "C:\\Users\\taski\\Downloads\\Missing Persons DApp\\contracts\\MissingPersons.sol",
  "compiler": {
    "name": "solc",
    "version": "0.8.21+commit.d9974bed.Emscripten.clang"
  },
  "schemaVersion": "3.4.16",
  "updatedAt": "2025-05-08T05:29:16.300Z",
  "networkType": "ethereum",
  "devdoc": {
    "kind": "dev",
    "methods": {},
    "version": 1
  },
  "userdoc": {
    "kind": "user",
    "methods": {},
    "version": 1
  }
}